:020000040802F0
:10000000A0A0002095030208E34702080F4602085B
:10001000E1470208B726020811620208000000004A
:10002000000000000000000000000000D5020208EF
:10003000752702080000000031030208495B02082E
:10004000AF030208AF030208AF030208AF030208C0
:10005000AF030208AF030208AF030208AF030208B0
:10006000AF030208AF030208AF030208AF030208A0
:10007000AF030208AF030208AF030208AF03020890
:10008000AF030208AF030208AF030208AF03020880
:10009000AF030208AF030208AF030208AF03020870
:1000A000AF030208155C0208AF030208AF030208A1
:1000B000AF030208AF030208AF030208AF03020850
:1000C000AF030208AF030208AF030208AF03020840
:1000D000AF03020885610208AF030208AF030208FC
:1000E000AF030208AF030208AF030208AF03020820
:1000F000AF030208AF030208AF030208AF03020810
:10010000AF030208AF030208AF030208AF030208FF
:10011000AF030208AF030208AF030208AF030208EF
:10012000AF030208AF030208B9260208AF030208B2
:10013000AF030208AF030208AF030208AF030208CF
:10014000AF030208AF030208AF030208AF030208BF
:10015000AF030208AF030208C5260208AF03020876
:10016000AF030208AF030208AF030208AF0302089F
:10017000AF030208AF030208AF030208000000004B
:10018000AF030208AF03020800F002F800F092F893
:100190000AA090E8000C82448344AAF10107DA45E2
:1001A00001D100F087F8AFF2090EBAE80F0013F0A2
:1001B000010F18BFFB1A43F0010318472482000007
:1001C00044820000103A24BF78C878C1FAD8520798
:1001D00024BF30C830C144BF04680C6070470000C1
:1001E0000023002400250026103A28BF78C1FBD840
:1001F000520728BF30C148BF0B6070476E2900F01E
:10020000E885702900F04987662907F01E8765296F
:1002100007F01B87672907F01887612907F0178700
:1002200003681B0A28BF41F08001692900F0AA81F8
:10023000642900F0A781752900F0A4816F2900F0DE
:10024000D686782900F01587E92900F07186E4291F
:1002500000F06E86F52900F06B86EF2900F0D3865A
:10026000F82900F014870368DB0928BF41F08001FA
:10027000632900F0F285732900F0F785E32901F086
:100280007383F32901F07883002070471FB507F0CE
:10029000D7FE01F07DFD04000020002107F0BAFE2A
:1002A000401C60600020002107F09EFEE0601FBD42
:1002B00010B510BD01F03EFD1146FFF7E7FF06F057
:1002C000D3F801F01BFE03B4FFF7F2FF03BC01F00B
:1002D00023FE00002C4B19680868B0E8F04F80F34B
:1002E0000988BFF36F8F4FF0000080F311887047CB
:1002F0000000000008480068006880F308884FF09C
:10030000000080F3148862B661B6BFF34F8FBFF36D
:100310006F8F00DF00BF00BF08ED00E0DFF80C00CA
:10032000016841F470010160704700BF88ED00E092
:10033000EFF30980BFF36F8F134B1A681EF0100F95
:1003400008BF20ED108A20E9F04F106009B44FF08B
:10035000500080F31188BFF34F8FBFF36F8F06F00B
:10036000AFFF4FF0000080F3118809BC19680868DE
:10037000B0E8F04F1EF0100F08BFB0EC108A80F309
:100380000988BFF36F8F704718000020EFF30580D6
:10039000704700000948804709480047FEE7FEE72C
:1003A000FEE7FEE7FEE7FEE7FEE7FEE7FEE7FEE725
:1003B00004480549054A064B70470000F95B0208EE
:1003C00089010208A09A0020A0A00020A09C002083
:1003D000A09C002053EA020C00F069802DE9F04B4C
:1003E0004FF00006002B1FBFB3FA83F503FA05F4A4
:1003F00024FA05F65E4012BF1643B2FA82F502FAFD
:1004000005F4C5F120051EBF22FA05FC44EA0C04E0
:10041000203556EA044C4FEA144418BF641C4FF0D0
:1004200000084FF00009904271EB030C39D300290A
:1004300019BFB1FA81F701FA07F6B0FA80F700FAAE
:1004400007F6C7F120071EBF20FA07FC46EA0C0694
:100450002037B6FBF4FCA7EB0507103F07F01F0B96
:10046000CBF120060CFA0BFB2CFA06F644BFB34680
:100470000026202FA4BF5E464FF0000B5BEA060C5F
:1004800008BF4FF0010B19EB0B09ABFB027C48EBEB
:100490000608C01B06FB02CC0BFB03CC71EB0C0166
:1004A000C1E70B46024641464846BDE8F08B13B50E
:1004B0004FF000004FF00001AFF30080BDE81C409A
:1004C000704700007CB51D4616460C00009001D018
:1004D0002044401E074B7B442A4669460190304623
:1004E00000F091FC05461CB10020694600F09EFC1E
:1004F00028467CBD5D0900000FB47CB50C0009AA3C
:10050000009001D02044401E084B7B446946019076
:10051000089800F078FC05461CB10020694600F000
:1005200085FC28467CBC5DF814FB0000290900000E
:1005300070B50C460546012A05D02878800600D5FE
:10054000EA69002302E0012305E05B1C934202D22A
:10055000E05C0028F9D1A869E618C01AA861286AE9
:1005600018442862284600F0A2FB04E0D5E90121E6
:1005700014F8010B9047B442F8D3284600F0ADFBC5
:1005800070BD00002DE9F041064600241068752971
:10059000314616A510D000F0B1FB002802DA404227
:1005A00013A507E031688A0701D512A502E04907C3
:1005B00004D511A5012401E000F0A9FB00210A22C5
:1005C00006F1240709E0B0FBF2FCB0FBF2F302FBFA
:1005D0001C00303078541846491C0028F3D12346BB
:1005E0002A463046BDE8F04100F09ABB000000000A
:1005F0002D0000002B000000200000002DE9F05F1E
:10060000894604464FF0000ADFF874B1FB44C0F895
:1006100020A02046E1688847002874D0252806D00D
:10062000D4E901219047206A401C2062F1E70026AE
:100630005F462046E16888472028054607DB312DC4
:1006400005D2781910F8200C08B10643F1E7B0077D
:1006500001D526F00406C4F81CA00027C4F818A091
:100660002A2D09D0284605F0F7FE38B304EB870899
:10067000303DC8F8185019E059F8041B204604EB27
:1006800087029161E1688847012F054618D1E0692A
:10069000002820DA26F020061DE0D8F8180000EB2C
:1006A000800005EB40003038C8F818002046E168AB
:1006B0008847054605F0D0FE0028EED1012F0AD06C
:1006C0002E2D08D12046E16888477F1C0546022F61
:1006D00046F02006C4DBA069002803DA404246F059
:1006E0000106A061F00701D026F010066C2D0BD09A
:1006F000682D09D04C2D39D06A2D35D0742D35D0C8
:100700007A2D33D016E038E0E1682F46204688473E
:10071000B842054609D16C2F26D04FF48060E168BD
:10072000064320468847054604E06C2F1AD04FF454
:10073000807006430DB3A5F14100192802D8203579
:1007400046F400664A462946204626604E46FFF794
:1007500055FD80B101280BD0F61D26F0070000F1F1
:10076000080956E74020E4E78020D8E70020D6E7D4
:1007700006F104094DE7284652E7206ABDE8F09FDC
:10078000847A00000FB400B58DB010A909900091D3
:100790000B904FF0FF300A9000200C9006487844F0
:1007A0000690064878446A4607900F9909A800F019
:1007B00093FC0DB05DF814FB570900006F090000B1
:1007C0002DE9FF5F1D464FF0FF3B91464FF00008BB
:1007D0005F46D5E90146A96901987F1C8847296AC7
:1007E000824688470028F6D1BAF1FF3F0CD0002E90
:1007F00024F4C06419DD600614D5BAF12B0F09D0BA
:10080000BAF12D0F0ED103E0584604B0BDE8F09FB9
:1008100044F48064A96901987F1C8847761E82464B
:10082000002E02DDBAF1300F03D0B9F1000F26D04F
:1008300032E0A969761E01987F1C44F40074884751
:10084000002E824605DDBAF1780F06D0BAF1580FB6
:1008500003D0B9F1000F10D01EE0B9F1000F02D0A3
:10086000B9F1100F18D1A969761E01987F1C24F4E4
:10087000007488478246102002E0082000E00A2029
:10088000814609E0A96908FB0908761E01987F1CCA
:1008900044F4007488478246002E05DD49465046E0
:1008A00000F006FC0028EDDAE96901988847A00508
:1008B00002D46FF00100A8E7E00725D1600613D548
:1008C000600502D5C8F1000000E0404629680A1D15
:1008D0002A600968220501D5087015E0220701D5B4
:1008E000088011E008600FE02868011D2960006899
:1008F000210502D580F8008006E0210702D5A0F886
:10090000008001E0C0F8008038467EE72DE9FF5FF7
:100910004FF000089946144646469169D2E901A76E
:10092000DDF838B001988847054659EA0B0005D034
:1009300009E0A1690198761C88470546216A284686
:1009400088470028F5D1681C03D05FEACA7005D03B
:1009500015E04FF0FF3004B0BDE8F09F2068011DA6
:100960002160D0F800800AE05FEACA7001D108F87F
:10097000015BA169761C01987F1E88470546002F00
:100980001ADD681C18D0B9F1000F0DD0E81705EB7F
:10099000D060421120F01F0059F822102A1A0120BD
:1009A00090400142E0D107E0BBF1000FDCD12846C6
:1009B000216A88470028D7D0E16901988847BBF1B0
:1009C000000F07D1002E05DD5FEACA7002D10021B9
:1009D00088F80010A068B84203DDBBF1000F03D017
:1009E00017B16FF00100B6E73046B4E730B5054601
:1009F0000B462A4613F8014B12F8010B08B1A0422E
:100A0000F8D01CB1002802D06D1CF1E7284630BD9B
:100A100040EA010310B59B070FD1042A0DD310C87B
:100A200008C9121F9C42F8D020BA19BA884201D9CD
:100A3000012010BD4FF0FF3010BD1AB1D30703D015
:100A4000521C07E0002010BD10F8013B11F8014BCB
:100A50001B1B07D110F8013B11F8014B1B1B01D1E7
:100A6000921EF1D1184610BD10B5431C02E010F8DB
:100A7000011B71B18107FAD14FF0013202C88C1A03
:100A80008C4314EAC211F9D0C01A0A0603D0C01E62
:100A900010BDC01A10BD0A0401D0801E10BD09028D
:100AA000FCD0401E10BD032A40F2308010F0030C31
:100AB00000F0158011F8013BBCF1020F624498BFB1
:100AC00011F801CB00F8013B38BF11F8013BA2F14E
:100AD000040298BF00F801CB38BF00F8013B11F0C9
:100AE000030300F02983083AC0F0088051F8043B62
:100AF000083A51F804CBA0E80810F5E7121D5CBFD6
:100B000051F8043B40F8043BAFF30080D20724BF08
:100B100011F8013B11F801CB48BF11F8012B24BF9C
:100B200000F8013B00F801CB48BF00F8012B7047EB
:100B300002F0FF0343EA032242EA024200F002B855
:100B40004FF000020429C0F0128010F0030C00F0F6
:100B50001B80CCF1040CBCF1020F18BF00F8012B74
:100B6000A8BF20F8022BA1EB0C0100F00DB85FEA42
:100B7000C17C24BF00F8012B00F8012B48BF00F80E
:100B8000012B70474FF0000200B51346944696467D
:100B9000203922BFA0E80C50A0E80C50B1F1200190
:100BA000BFF4F7AF090728BFA0E80C5048BF0CC03E
:100BB0005DF804EB890028BF40F8042B08BF70479C
:100BC00048BF20F8022B11F0804F18BF00F8012B0E
:100BD000704710B5044610F0030F08BF11F0030F63
:100BE00040F015804FF0013E121FC0F20E8051F808
:100BF000043BA3EB0E0C2CEA030C1CEACE1C08BF32
:100C000040F8043BF0D0A1F1040102F10402521EAD
:100C100008DB11F8013B002B00F8013BF7D111462E
:100C2000FFF78EFF204610BD4FF0013C50F8042B1B
:100C300051F8043B9A4221D1A2EB0C03934313EAEF
:100C4000CC1317D150F8042B51F8043B9A4215D11C
:100C5000A2EB0C03934313EACC130BD150F8042BF3
:100C600051F8043B9A4209D1A2EB0C03934313EAD7
:100C7000CC13DBD04FF00000704700BFD01A01BA90
:100C8000B1FA81F101F0180122FA01F0CB40C1F173
:100C90002001DBB2C0B2C01A2CFA01F3D11A914381
:100CA00011EAC311E6D1704770477047704770B5BD
:100CB000044685690068C10601D5302600E020267B
:100CC000C00707D070BDD4E9012130469047206AA3
:100CD000401C20626D1EF6D570BD70B50446856956
:100CE0000078C00707D170BDD4E9012120209047CA
:100CF000206A401C20626D1EF6D570BD09684A0549
:100D000001D540B27047C905FCD500B270470968EB
:100D10004A0501D5C0B27047C905FCD580B27047FD
:100D20002DE9F0470D4699469246044600F1240805
:100D30000168880604D5E06921F01001216000E017
:100D40000120A84201DD471B00E00027A1697A19B4
:100D500002EB0900081AA0612078C00602D42046E0
:100D6000FFF7A5FF002608E0D4E901211AF80600E4
:100D70009047206A401C761C20624E45F4DB2078A8
:100D8000C0060AD52046FFF792FF06E0D4E901210C
:100D900030209047206A401C2062381EA7F10107CE
:100DA000F4DC07E0D4E9012118F805009047206A37
:100DB000401C2062281EA5F10105F3DC2046FFF748
:100DC0008CFF2078000602D50220BDE8F0870120C4
:100DD000FBE711680268006A530501D508700AE054
:100DE000D30501D5088006E0130603D5C217C1E973
:100DF000000200E0086001207047000001694A1C01
:100E000002610878704700B58FB0CDE9013100214B
:100E1000059105497944CDE9031011466846FFF76D
:100E2000EDFB0FB000BD0000E5FFFFFF0A6802F810
:100E3000010B0A607047D1E900239A4202D2531C89
:100E40000B601070704710B5436913B1AFF30080A9
:100E500001E0FFF76DFB012010BD127800F12401C5
:100E60000A7000224A700122EDE711684FF0FF324C
:100E7000E9E700002DE9FF5F15468A460446DFF8E2
:100E8000AC80F8440027D8E900103E46CDE90010B8
:100E900010E03AF816106A4602A800F02BFF411C39
:100EA00007D02178890603D5E269391891420DD817
:100EB0000744761C2078800602D5E069B84205DD3B
:100EC000AE42E6DB3AF816000028E2D1A069C01B6A
:100ED000A0612046FFF7EBFED8E90010CDE9001035
:100EE000002017E03AF818106A4602A800F002FF46
:100EF000B0F1FF3F81460BD000250DF1080B05E056
:100F0000D4E901211BF8050090476D1C4D45F7D32E
:100F100008F10100B0428046E4DB206A38442062D8
:100F20002046FFF7DAFEBDE8FF9F000022720000B6
:100F30002DE9F0418046D21D22F007020025D2E9BA
:100F40000002F52915A614D0011E72F1000106DA7F
:100F50000023D0EB030063EB020211A608E0D8F8EF
:100F600000108B0701D50FA602E0490701D50EA698
:100F700001251146002408F1240704E000F00EF9D1
:100F800030323A55641C50EA0102F7D12B46324602
:100F900021464046BDE8F041FFF7C2BE0000000018
:100FA0002D0000002B0000002000000030B40021C4
:100FB00000F1240408E002F00705D208303542EAC7
:100FC0004372DB086554491C52EA0305F3D10468F7
:100FD000002310A2250707D5A40600D421B1C469B7
:100FE00001230DA2641EC46130BCFFF799BE10B589
:100FF000044621461068FFF78AFE02462046BDE8F7
:1010000010400023D2E7D21D22F00701D1E90023CE
:10101000CCE700000000000030000000F0B40D46F6
:101020000188090502D5214C7C4402E01F4C7C4418
:101030000E34002100F1240608E002F00F07120927
:10104000E75D42EA03721B097754491C52EA030721
:10105000F3D102780023120704D5702D06D009B110
:10106000022311342246F0BCFFF75ABE012310348C
:10107000F8E770B504460D4621461068FFF747FEB5
:10108000024629462046BDE870400023C6E7D21D2F
:1010900022F00703D3E90023C0E70368126843F096
:1010A000200303600823C3610023B7E784700000B6
:1010B0003A2800D2303820F02002412A01D3A2F190
:1010C0003700884201D34FF0FF3070470268114467
:1010D0001378016018467047D16005497944516121
:1010E00004497944116200211161114600F048BCA5
:1010F000EDFFFFFF41010000426842B1016811F8B5
:10110000013B23B1521EC0E900121846704701216D
:10111000C160881E704742685AB1C368016843B90C
:1011200083688B4205D0491E521CC0E90012002082
:1011300070474FF0FF30704710B5203AC0F00B8079
:10114000B1E81850203AA0E81850B1E81850A0E8CB
:101150001850BFF4F5AF5FEA027C24BFB1E8185025
:10116000A0E8185044BF18C918C0BDE810405FEA95
:10117000827C24BF51F8043B40F8043B08BF704711
:10118000D20728BF31F8023B48BF11F8012B28BF16
:1011900020F8023B48BF00F8012B704730B5B0F192
:1011A0000A024FEA900E71F100034EEA817EB0EB25
:1011B0000E0061EB91014FEA101E4EEA017E10EB2A
:1011C0000E0041EB11114FEA102E4EEA016E10EBAA
:1011D0000E0041EB11214FEA104E4EEA014E10EB8A
:1011E0000E0041EB1141401841F100014FEAD000DF
:1011F00040EA41704FEAD10110EB80054FEA8104CB
:1012000044EA907444EB01046D1944EB0404521B4E
:10121000A3414FF0000348BF0A3200D530BD401C47
:1012200041F1000130BD10B5044600F0A9FD006891
:10123000005D00F0010010BD70472DE9FF4F0C4626
:101240001E464FF0FF378BB0D2E90001DDF8608019
:101250000A908A46C1F30A5505B93D460021084661
:101260004FF00000BAF1000F00F4400005DA00EB87
:1012700080004FF4400101EA50004FEA9059B9F163
:10128000010F00DDB9460A9850EA4A000ED044F634
:101290001050A5F2FF3545432F14B8F1000F1ED0B2
:1012A0007542291E1EDDC9F100021CE0B8F1010FD4
:1012B0004FF0000001D0302103E0F24305E021545B
:1012C000401CB042FBDB30460022002121540B9928
:1012D000C1F80880C1E900200FB0BDE8F08FBD1B48
:1012E0006D1CDEE74A4600DA694206A800F094FD6C
:1012F00006AB93E8070003AB83E8070050460A9962
:1013000000F011FE8DE80700A0F500501F38009096
:101310000398002D0ADD42F21F014A4608440023CB
:1013200003A90390684601F07AF809E0A0F500509F
:101330004A461F38002303A90390684601F084F849
:101340008DE807000004000C03D04FF0FF30410887
:1013500000E01046B8F1000F03D0002200921546BD
:101360001EE0751E05D4FFF719FF303262556D1E61
:10137000F9D5B3460122084302D000227F1C04E0C5
:101380002078302801D100227F1E002A099784D0BE
:101390001DE0112D07DAFFF701FF303262556D1C99
:1013A00050EA0102F5D1084302D00098C8B10EE01E
:1013B0000021681E05E0235C625C63542254401ED9
:1013C000491C8142F7DBAB46A81B401E0990002058
:1013D00004F80B000B98099AC0F80880C0E9002BAC
:1013E0007AE711264FF0000857E72DE9F04F8846BD
:1013F0000446D21D22F0070191B0D1E90001CDE9E8
:101400000A0105F001F802460B98C00F01D02D200B
:1014100007E02068810701D52B2002E0202101EAA6
:10142000C000032A099001D0072A05DB0346414684
:10143000204600F0B1FC0BE12078800601D5E06980
:1014400000E00620B8F1650F814606D0B8F1660FBE
:1014500018D0B8F1670F70D131E00020B9F1110F49
:10146000009001DB112301E009F101030AAA01A99F
:101470000CA8FFF7E2FEDDE90C70002609F101057A
:10148000834647E001204B4600904FF000470AAAF0
:1014900001A90CA8FFF7D1FEDDE90DB00C995D465E
:1014A000002610B909F101000D18B9EB050003D4AD
:1014B000C0F1FF3609F10105A5EB09002BE0B9F1F8
:1014C000010F01DA4FF001090020B9F1110F00906E
:1014D000484601DD112300E003460AAA01A90CA831
:1014E000FFF7ABFEDDE90C704D4600268346207801
:1014F00000070AD4AB4500DA5D4601A8012D04DDE2
:10150000411911F8011C302907D04F4502DA17F1B3
:10151000040F04DA012082460FE06D1EEEE7002F73
:1015200002DCED1B3E4403E0781CA84200DD7D1C7C
:10153000B81B00F1010A4FF000472078000703D4E0
:10154000AA4501DB4FF0FF3A0021B7F1004F0DF142
:1015500043088DF8431024D002202B23002F01DAFA
:101560007F422D230A21021EA0F1010000DC5FB1A1
:1015700097FBF1FC97FBF1F201FB1C7C17460CF189
:10158000300C08F801CDEEE7A8F1010003702188C6
:10159000090501D5452100E06521A0F1010800F809
:1015A000011C09980FA9A1EB0807FF1D00B101203C
:1015B000411901EBEA70A1693844081A401EA06184
:1015C0002078C00602D42046FFF771FB099828B1A5
:1015D000D4E901219047206A401C20622078C0068F
:1015E00022D52046FFF763FB1EE0002E04DBB34547
:1015F00002DD01A8805D00E03020D4E901219047A0
:10160000206A401C2062761CAAF101005FEA000AF1
:101610000AD100F0BDFBC0680168405CD4E901213B
:101620009047206A401C2062281EA5F10105DCDCE1
:1016300007E0D4E9012118F8010B9047206A401C0B
:101640002062381EA7F10107F3DC2046FFF745FBB7
:10165000032011B041E600002DE9F04F04460D468D
:10166000D21D22F0070089B0D0E9009748463946DC
:1016700004F0CAFE0246F80F01D02D2307E02068CF
:10168000810701D52B2302E0202101EAC0038DF858
:1016900020300BB1012000E00020032A824601D057
:1016A000072A04DB2946204600F076FB3FE120783C
:1016B000800601D40D2500E0E569C7F30A560D2D1B
:1016C00049DA00214FEA175B08464FF00000002F6F
:1016D00000F4400007DA00EB80004FF4400100EB1B
:1016E000D07001EA60008115012901DD4FF0FF3162
:1016F00000224FEA850CBCF1180F06D31346ACF15B
:1017000018004FF08052C24003E04FF4801323FAD8
:101710000CF30CF10C0CBCF1200F04D3ACF1200C39
:1017200009FA0CF001E007FA0CF000294FF000482C
:1017300001DD18B90FE00ED140450CD319EB0209B9
:101740005F4121B9404502D19F4329EA0209BBEB21
:10175000175F00D0761C2088000502D57B487844AE
:1017600002E07A487844193808AA302302F80A308F
:10177000037C0AF10101002E0AF1020A53546A4661
:1017800002DC4FF0300101E04FF031014FF0010871
:101790008DF8001002D0A6F2FF3603E059EA4701A7
:1017A00000D06B4E002D02DC2178090704D54FF0E4
:1017B00002082E218DF80110C44600210BE0C7F36A
:1017C00003433F01C35C491C6D1E02F80830052924
:1017D00008F1010801DA002DF1DC00210CE000EB3A
:1017E0001973491C1B786D1E082902F808304FEA4E
:1017F000091908F1010801DA002DF0DC21688B06D7
:1018000002D516E0A8F10108E04505DD02EB08036A
:1018100013F8013C302BF5D0B8F1000F09DD02EBD5
:10182000080313F8013C2E2B03D1090701D4A8F1BA
:101830000108002D05DD3E2102F808106D1E08F19B
:101840000108407C002E02F8080008F1010804DAC3
:101850002D20764202F8080002E02B2002F8080052
:101860000A214FF47A70864208F101080BDB96FBDF
:10187000F0F3303302F8083096FBF0F308F101087A
:1018800000FB136601E0642E0CDB642096FBF0F392
:10189000303302F8083096FBF0F308F1010800FB42
:1018A000136601E00A2E06DB96FBF1F0303002F8F9
:1018B000080008F1010896FBF1F001FB10603030E0
:1018C00002F80800A16908F1010808EB050202EB23
:1018D0000A00081AA0612078C00602D42046FFF74B
:1018E000E6F9216A08AE01EB0A00206204E0D4E9BF
:1018F000012116F8010B9047BAF1010AF7D22078BE
:10190000C00602D52046FFF7D2F96E4609E016F868
:10191000010B3E280FD0D4E901219047206A401CDA
:101920002062B8F10108F2D22046FFF7D6F909B0DB
:101930000320BDE8F08F206A2844206203E0D4E948
:101940000121302090476D1EEBD3F8E78969000034
:1019500002FCFFFF10B5436913B1AFF3008001E053
:10196000FFF788FA012010BD128800F1240182845B
:101970000022C2840122EDE711684FF0FF32E9E74F
:101980002DE9F34F4FF0000A0C4656468DB001206A
:101990000C9001F10C000B9062690B9801219047AB
:1019A000051E2DD0252D2CD0216A8847C0B1626933
:1019B0000B9801219047216A88470028F7D1626976
:1019C000411E0B98904700E0761CA1690D9888474E
:1019D000216A88470028F7D1E1690D988847DBE73D
:1019E000A1690D988847A842074601D1761CD3E724
:1019F000E1690D9888477F1C02D1BAF1000F6FD0C2
:101A00006CE162690B9800273D46394690472A28C9
:101A100004D162690B98012190470125DFF8D0823B
:101A200062690B9801219047A0F130010A290AD27E
:101A30004745E5DC07EB870100EB4107303FDFD48A
:101A400045F01005ECE7E90601D46FF000476C287B
:101A50000AD04C2814D0682815D06A280DD07428D4
:101A60001CD07A281AD01DE062690B98012190479A
:101A70006C2802D045F0040514E045F002050DE0A5
:101A800045F020050AE062690B980121904768281B
:101A900002D045F0080505E045F4006562690B9841
:101AA00001219047C4E9015765283DD019DC582829
:101AB0007AD00CDC452837D004DC252826D04128F4
:101AC0009ED131E046282FD0472899D12CE05B28C1
:101AD00077D0612828D063287CD0642823D15AE0AD
:101AE000F7E06F2848D008DC66281DD067281BD097
:101AF000692821D06E2816D127E0702845D0732898
:101B000068D0752847D078280DD14DE0A1690D988F
:101B10008847252805463FF469AFE1690D98884755
:101B20006D1C3FF46AAFD9E00D9923466A466FF009
:101B30000100AFF30080C6E045F0400023464FF0BF
:101B400000026060A80736D43EE0E8077FF447AFA4
:101B50002068011D21600068290501D506701BE77A
:101B6000290701D5068017E7A90703D5F117C0E9B2
:101B7000006111E706600FE745F0400023464FF093
:101B800008026060A80716D41EE040F60E0125EAA0
:101B90000100606016E045F0400023464FF00A0265
:101BA0006060A80707D40FE045F040006060A80718
:101BB00008D5234610220D996FF00100AFF3008085
:101BC00081E007E0102223460D996FF00100FEF737
:101BD000F7FD78E04FF0000963284F46C8464B46B2
:101BE000CB4602D05B2807D039E02079C00601D46B
:101BF0000120A060012732E06269D4F80CB00B9894
:101C0000012190475E2807D14FF0010949466269DA
:101C1000D4F80CB00B989047216939B900210A46D5
:101C200003AB43F82120491C0829FADBD8B321690A
:101C300049B308F1010862690B98012190475D28BA
:101C4000F4D1B9F1000F09D0002003A951F82020E8
:101C5000D24341F82020401C0828F7DB03AB206961
:101C6000002820794FEA40701ED05B462246CDF80E
:101C70000080CDE901970D9900286FF0010020DA6E
:101C8000AFF300801FE0C11703AA00EBD1614B1135
:101C900021F01F0102EB8302411A136801208840E2
:101CA00003431360C7E719E00D99224600286FF03F
:101CB0000100009702DAAFF3008004E0FEF726FE91
:101CC00001E0AFF3008000280ADA401C06D10C982E
:101CD00020B14FF0FF300FB0BDE8F08F5046FAE76B
:101CE000E90701D10AF1010A064400200C9053E6ED
:101CF000CCCCCC0C70B516460C46054600F040F82E
:101D0000036893F80101012806D0FF2C0FD8185D55
:101D100068B101202C7070BDD3F80701324621460E
:101D200003F2071303442846BDE8704018474FF0FC
:101D3000FF3070BD754600F0EBF8AE460500694611
:101D4000534620F00700854618B020B5FEF730FB5B
:101D5000BDE820404FF000064FF000074FF00008AC
:101D60004FF0000B21F00701AC46ACE8C009ACE82D
:101D7000C009ACE8C009ACE8C0098D467047000056
:101D800010B500F005F8001D10BD00BF896200000D
:101D9000004870475C9A00202DE9F0411F46044638
:101DA00003260168072A01F4006004DB08B116A5C8
:101DB00005E016A503E008B115A500E015A521F082
:101DC00010002060A069C01EA0610FB1401EA0617C
:101DD0002046FEF76CFF4FB1D4E901213846904709
:101DE000206A401C2062C01C206206E0206AFAE7DC
:101DF000D4E9012115F8010B9047761EF8D2204650
:101E0000FEF76BFFBDE8F0814E414E006E616E0043
:101E1000494E4600696E66002DE9F0478146164638
:101E20008AB0354878440DC88DE80D0032487844B2
:101E3000801C03AC0DC884E80D0041F69B300844BB
:101E4000372190FBF1F290FBF1F5A5F1800501FB44
:101E500012041B3C02D56442012000E00020DFF8A0
:101E600098A080460027FA44AAF1BE0A0EE0E007D7
:101E70000AD03246684607EB470101230AEB81018D
:101E800000F0E2FA8DE8070064107F1C002CEED110
:101E9000194F7F44AE3F19E0E80715D007EB041057
:101EA0000DF1180A90E80E008AE80E00C068F042B2
:101EB00001D1981908903246012306A903A800F021
:101EC000C3FA03AB83E807006D10641C002DE3D157
:101ED0004FF0010332466946B8F1000F03A802D063
:101EE00000F09DFA01E000F0AFFAC9E90001C9F87D
:101EF00008200AB0BDE8F0875463000010B504461E
:101F0000AFF300802046BDE81040FEF7DCB90000CA
:101F1000004870473C9A002001491820ABBEFEE7FC
:101F20002600020070475FEA400C08BF91F0000FE6
:101F30004FEA8C234FEAC12243EA51514FEA1C5029
:101F400018BF00F5F0404FEA300018BF41F00041E3
:101F50005FEA6C5C00F02980BCF1FF3F08BF40F0F5
:101F600080407047130C06BF12044FF0100C4FF066
:101F7000000C130E04BF12020CF1080C130F04BF67
:101F800012010CF1040C930F04BF92000CF1020C2F
:101F9000D30F04BF52000CF1010C11464FF00002A8
:101FA000A0F11F00A0EB0C00704711F0004F08BF1C
:101FB000704731F000413FF4D5AF0B0C06BF090468
:101FC0004FF0100C4FF0000C0B0E04BF09020CF187
:101FD000080C0B0F04BF09010CF1040C8B0F04BF9C
:101FE00089000CF1020CCB0F04BF49000CF1010C6D
:101FF000CCF12003A0EB0C0022FA03F302FA0CF25E
:1020000041EA030100F10100704720F07F4C80EAB3
:10201000030023F07F47ACEB070303F57C5300F08C
:10202000004003F1FF032DE980494FEA154B09B445
:102030004FEA144325EA0B4E24EA03480FF2042624
:1020400006EB132749083E785FEA320203FB066776
:10205000C7F5000707FB06F64FEA54374FEAD646A6
:1020600006F1020607FB066CCCF1005C4FEA1C4748
:102070002CEA074C07FB06F40CFB06F504EB1546AF
:102080004FEA961634BF00204FF000404FEAD13798
:1020900006FB07FC4FEA1C4C0CFB0BF7D21B03FBA7
:1020A0000CF761EB07010CFB0EF7B0EB074072EB8E
:1020B00017420CFB08F734BFA2EB0742B2EB074212
:1020C00061EB17414FEA0C444FEA910706FB07FC0E
:1020D0004FEA1C4C0CFB0BF7B0EBC74072EB5732CE
:1020E00003FB0CF734BFA2EBC742B2EBC74261EB74
:1020F00057310CFB0EF7B0EBC70072EB57720CFBBD
:1021000008F734BFA2EBC702B2EBC70261EB57710D
:10211000039F4FEA816141EA921104EBCC044FEA3C
:10212000D1374FEA826206FB07FC42EA90124FEA7F
:1021300080604FEA1C4C0CFB0BF7D21B03FB0CF727
:1021400061EB07010CFB0EF7B0EB074072EB174297
:102150000CFB08F734BFA2EB0742B2EB074261EB7E
:1021600017414FEA8C554FEA910704EB9C2406FB7C
:1021700007FC4FEA1C4C0CFB0BF7B0EBC74072EBB3
:10218000573203FB0CF734BFA2EBC742B2EBC74296
:1021900061EB57310CFB0EF7B0EBC70072EB5772D7
:1021A0000CFB08F734BFA2EBC702B2EBC70261EB2E
:1021B000577115EB4C254FEA816141EA92114FEAC4
:1021C00082624FEAD13742EA901206FB07FC44F1E3
:1021D00000044FEA80604FEA1C4C0CFB0BF7D21B4B
:1021E00003FB0CF761EB07010CFB0EF7B0EB0740AC
:1021F00072EB17420CFB08F734BFA2EB0742B2EBBD
:10220000074261EB174115EB1C154FEA813141EA9A
:1022100092414FEA823242EA90424FEA80304FEADE
:102220000C7644F1000448EA03434EEA0B484FF0B1
:10223000000EB2EB080C71EB030724BF624639466F
:102240004EEB0E0E4FF0000B0018524149414BEB84
:102250000B0BB2EB080C71EB03077BF1000B24BFF7
:10226000624639464EEB0E0E4FF0000B00185241FD
:1022700049414BEB0B0BB2EB080C71EB03077BF105
:10228000000B24BF624639464EEB0E0E51EA0207A0
:1022900018BF46F0010616EB0E7655F1000254F118
:1022A000000103D5BDE88901BDE80088BDE88901CA
:1022B000BDE80048B619524141EB0101A3F1010309
:1022C000704780807F7E7D7C7B7A797877767675A3
:1022D0007473727171706F6E6E6D6C6C6B6A6A691B
:1022E0006868676666656464636362616160605FB5
:1022F0005F5E5E5D5D5C5C5B5B5A5A59595858572E
:102300005756565555555454535352525251515095
:1023100050504F4F4F4E4E4D4D4D4C4C4C4B4B4BE8
:102320004A4A4A494949484848474747474646462E
:102330004545454444444443434343424242424169
:102340004141002B9C4630D477002BD01CB54FEA7E
:10235000370703B44FF010004FF01001BAF1000F2F
:1023600006D0BCF1000FDCBF40F0080040F00801CF
:102370004FF000000FBCBDE810400BF1010BBBF1AA
:10238000010F08BF5FEA170722BF12F1010211F126
:1023900001014FF0004143F1000300F0004043EA27
:1023A00000007047F9D35708D0E746EA064613F114
:1023B000400F4FEA16461FDD13F1200FDFBF164313
:1023C0000A46002120335B42BED0C3F1200746EA13
:1023D000064602FA07F74FEA164646EA0706C3F131
:1023E000200722FA03F201FA07F721FA03F14FF06E
:1023F000000342EA0702A7E746EA020646EA064663
:102400004FEA164646EA0106BCBF46EA0646360CC7
:102410004FF000034FF000024FF0000194E72DE968
:10242000804C9A46934670B491E8380007C831EA68
:10243000400C48BF34EA430C03D5FFF7E6FDFFF735
:1024400080FFF0BCBDE8008C2DE9804C9A46934695
:1024500070B491E8380007C810F0804F08BF13F03F
:10246000804F03D100F005F8FFF76BFFF0BCBDE82B
:10247000008C20F07F4780EA030023F07F4C07EBBD
:102480000C03A3F57C5300F00040A3F1FE0392F08F
:10249000000F00F0B38095F0000F00F077802DE979
:1024A00001494FEA11404FEA144621EA004800FB77
:1024B00006FC24EA064708FB06F607FB08F800FBC3
:1024C00007F718EB06484CEB164C4FEA124B18EB8B
:1024D00007484FEA15464CEB174022EA0B4E0BFB20
:1024E00006FC25EA06470EFB06F607FB0EFE0BFB75
:1024F00007F71EEB064E4CEB164C4FF000061EEB9A
:10250000074E4CEB174B18EB0B0840F1000018EB93
:102510000E0B58EB000840F100008F1A4FF000013D
:102520003CBFC943661B14BFB5EB040C00213CBF84
:10253000C943F61B4FEA17444EEA8E0E27EA0445BC
:102540004FEA1C4704FB07622CEA074C05FB07F720
:102550000CFB05F604FB0CFC16EB074642EB17429E
:1025600016EB0C4642EB1C421BEB060658EB020234
:10257000414146EA9E0601D5BDE80189B61952419E
:1025800041EB0101A3F10103BDE801894FEA1445C4
:102590004FEA114724EA054621EA074C05FB07F4F8
:1025A00006FB07F70CFB06F105FB0CFC11EB0741E2
:1025B00044EB17444FEA124711EB0C4144EB1C4427
:1025C00022EA074C05FB07F206FB07F70CFB06F6B1
:1025D00005FB0CFC16EB074642EB174216EB0C46CC
:1025E00042EB1C456A1854F1000148BF7047B61908
:1025F000524141EB0101A3F10103704795F0000F37
:1026000037D04FEA11424FEA144721EA024624EA42
:10261000074C02FB07F106FB07F70CFB06F402FB75
:102620000CFC14EB074441EB17414FEA154714EB40
:102630000C4441EB1C4125EA074C02FB07F506FB65
:1026400007F70CFB06F602FB0CFC16EB074645EB06
:10265000174516EB0C4645EB1C42121951F10001CF
:1026600048BF7047B619524141EB0101A3F1010384
:1026700070474FEA14454FEA114724EA054621EA1C
:10268000074C05FB07F106FB07F70CFB06F24FF0C2
:10269000000605FB0CFC12EB074241EB174112EB65
:1026A0000C4251EB1C4148BF7047921841EB0101AD
:1026B000A3F101037047FEE7014800F097BA00005C
:1026C0008C010020014800F091BA0000EC010020CC
:1026D00001681823CAB2103AB2FBF3F2054B6FF34C
:1026E0000901032A9B5CC36500D9091D8165084661
:1026F000704700005280020810B5014600208B6927
:102700008A6A4FF0C07453B1B3F5005F15D072B14F
:10271000012A0CD0022A0AD0032A09D104E01AB1F6
:10272000012A06D0022A03D1C96AC90100D50120B5
:1027300010BDC96AA142FAD010BD002AF7D0012A03
:10274000F2D0022AF3D0032AF3D010BD30B50468CA
:10275000256825F480252560046863608368402B24
:10276000036803D099600068C26030BD9A60006859
:10277000C16030BD7047000010B54FF47A74204638
:1027800000F0A6FB4FF0FF3303220BA10B4801F032
:102790008DFE204600F09CFB6410214608A000F04E
:1027A00035F921460AA000F031F9C8210BA000F04C
:1027B0002DF9012010BD00002B2B2B00FC00002068
:1027C00041542B4349504D4F44453D3000000000DB
:1027D00041542B434950434C4F5345004154000052
:1027E00010B5FFF7C9FF642106A000F00FF96421BE
:1027F00004A000F00BF9002803D003A003F0ECFCC8
:10280000012010BD415400005B494E464F5D205BE6
:1028100045535033325D20415420496E6974204F36
:102820004B2E0D0A00000000F0B50F4689B004469B
:102830001CA1FEF7DBF806461DA12046FEF7D6F8E0
:1028400005461DA12046FEF7D1F8044645B33CB32A
:1028500036B320216846FEF795F96A4618A130463E
:10286000FDF790FF3A461BA12846FDF78BFF1D4D53
:102870001DA12A1D2046FDF785FF05F108010C4624
:102880006846FEF7D1F958B10020A860E8602861D9
:102890000B2269462046FEF79CF9012009B0F0BDE5
:1028A0000020FBE722746172676574223A00000021
:1028B00022746964223A00002273697A65223A0020
:1028C00022746172676574223A222533305B5E227E
:1028D0005D00000022746964223A25375B5E2C5D3E
:1028E00000000000249A00202273697A65223A25AC
:1028F000750000002DE9F14F05F092F9DFF874B092
:10290000002182468BF80010DFF86C9024E01B4811
:102910001849006802F0D0FF06001DD0002419E01D
:102920001BF80410641C0A2914D100250BEB0408C1
:1029300009EBC5077868FEF797F80246944205D37D
:10294000A8EB02007968FEF763F878B16D1CEDB270
:10295000042DEDD3B442E3D305F062F9A0EB0A01F4
:1029600000988142D3D30020BDE8F88F19F83500D4
:10297000FAE70000684B00207480020898000020ED
:1029800010B54FF4FA6421460AA000F03FF8002881
:102990000FD021460CA000F039F8002809D00EA174
:1029A0001148FEF723F8002803D010A003F014FC10
:1029B000012010BD41542B434950534E54504346BF
:1029C000473D312C3800000041542B434950534EB1
:1029D000545054494D453F002B434950534E545099
:1029E00054494D453A000000684B00205B494E4673
:1029F0004F5D205B45535033325D20534E54502081
:102A000054696D65204F4B0D0A00000070B50E46ED
:102A10000446014610A003F0DFFB2046FEF724F831
:102A200082B24FF0FF352B462146154801F03EFD9E
:102A30002B46022213A1124801F038FD3046FFF761
:102A400059FF0446104911A003F0C6FB012C01D028
:102A5000002070BD012070BD5B44454255475D209C
:102A60005B45535033325D2053656E64696E672059
:102A7000436F6D6D616E643A2025730D0A0000008E
:102A8000FC0000200D0A0000684B00205B4445421A
:102A900055475D205B45535033325D205265636579
:102AA000697665643A2025730D0A000030B50C463E
:102AB0000546A1B04FF4FA610CA0FFF7A7FF00286C
:102AC00011D02B460CA2802101A80094FDF714FD23
:102AD00041F2883101A8FFF799FF002803D00BA02D
:102AE00003F07AFB012021B030BD000041542B439C
:102AF000574D4F44453D310041542B43574A4150B7
:102B00003D222573222C2225732200005B494E466C
:102B10004F5D205B45535033325D20576946692035
:102B2000436F6E6E65637465642E0D0A0D0A0000B6
:102B300072B6FEE72DE9F0410446876D00F0D8FA41
:102B4000064694F835000025022806D080206065EE
:102B500084F834500120BDE8F0812068016821F03C
:102B6000160101602068416921F080014161206CFB
:102B700008B9A06C20B12068016821F0080101604B
:102B80002068016821F0010101600CE000F0B0FA5A
:102B9000801B052807D920206065032084F83500B4
:102BA00084F83450D7E720680068C007EED194F865
:102BB0005C103F208840B860012084F8350084F81C
:102BC00034500020C7E790F83510022903D0802147
:102BD000416501207047052180F8351000680168C3
:102BE00021F0010101600020704700002DE9F84349
:102BF00004464FF00009CDF8009063484FF4165199
:102C0000A56D0068B0FBF1F72E6894F85C10082001
:102C100000FA01F131420FD021680A6852070BD542
:102C20000A6822F004020A6094F85C108840A860E8
:102C3000606D40F00100606594F85C104FF0010891
:102C400008FA01F0304208D021684969090604D524
:102C5000A860606D40F00200606594F85C1004208C
:102C60008840304208D021680968890704D5A860E7
:102C7000606D40F00400606594F85C10102088409E
:102C8000304218D021680968090714D5A860206867
:102C90000168490304D50068000308D5A16C07E06A
:102CA0000168C90503D4016821F008010160216CA5
:102CB00009B12046884794F85C10202088403042B3
:102CC00031D021680968C9062DD5A86094F835006F
:102CD00005282068016806D0490347D5006800032D
:102CE0001DD4616C1CE021F016010160206841696F
:102CF00021F080014161206C08B9A06C20B12068EE
:102D0000016821F00801016094F85C103F208840C0
:102D1000A86084F8358084F83490216D1FE0E16B61
:102D200009B120468847606D00282BD0606DC00730
:102D300014D0052084F835002068016821F00101D5
:102D400001600098401C0090B84203D820680068D9
:102D5000C007F6D184F8358084F83490E16C0029FE
:102D600010D001B02046BDE8F04308470168C9050E
:102D7000D5D4016821F01001016084F8358084F811
:102D80003490CCE7BDE8F883140000202DE9F04131
:102D9000044600F0ADF906465CB1022084F8350027
:102DA000002584F834502068016821F00101016099
:102DB0000DE00120BDE8F08100F09AF9801B0528A4
:102DC00005D920206065032084F83500F2E72068EB
:102DD0000068C007F0D12268116820480140D4E99A
:102DE00001031843D4E90336334318436369184396
:102DF000A3691843E3691843236A18430843616AC7
:102E0000042903D1D4E90B13194308431060206847
:102E10004069666A20F0070130460E430127042806
:102E20000CD1A06A0643E06A40B12046FFF764FC7B
:102E300020B14020606584F83570BAE720684661AB
:102E40002046FFF745FC94F85C203F2191408160CB
:102E5000656584F835700020ACE700003F8010F015
:102E60002DE9F0410446866D90F8340000250128D4
:102E70000DD0012084F8340094F835700020012F23
:102E800007D084F8340002252846BDE8F0810220EE
:102E9000FBE7022784F8357060652046FFF756FC93
:102EA00094F85C103F208840B0602068016841F0D1
:102EB00016010160206C20B12068016841F0080112
:102EC00001602068016841F001010160DCE7000059
:102ED00070B5044600F00CF90546601C02D00448A9
:102EE0000078044400F004F9401BA042FAD370BDFE
:102EF000080000202DE9F84FDFF8BCA100220125D1
:102F000003264FF00F090AF1040BAAF1040E00BFCB
:102F10000B6805FA02F42340A34270D10F7907F041
:102F20000307012F01D0022F16D187684FEA42080C
:102F300006FA08FC27EA0C07D1F80CC00CFA08FCCA
:102F40004CEA070CC0F808C04768A7430C79C4F3E3
:102F5000001494403C4344600C79E443A4070AD035
:102F6000C4684FEA420C06FA0CF7BC438F6807FAB4
:102F70000CF72743C7600C7904F00304022C12D12C
:102F8000D40800EB840CDCF820405707FF0E09FA48
:102F900007F824EA0804D1F8108008FA07F848EA8C
:102FA0000408CCF8208004684FEA420C06FA0CF7BB
:102FB000BC430F7907F0030707FA0CF727430760B4
:102FC0004C6814F4403F70D03C4C276847F480476D
:102FD0002760246822F0030704F480440094384CEE
:102FE00007EB040CDCF8084897074FEA177809FA52
:102FF00008F7BC43334FB84202D1002724E054E025
:10300000314FB84201D101271EE0304FB84201D103
:10301000022719E02E4FB84201D1032714E02D4FAB
:10302000B84201D104270FE02B4FB84201D1052748
:103030000AE02A4FB84201D1062705E0284FB842DE
:1030400001D1072700E0082707FA08F72743CCF843
:103050000878DAF800405746D1F804C09C435FEA8C
:10306000CC2C00D51C433C60DBF800405F46D1F817
:1030700004C09C435FEA8C2C00D51C433C60DEF806
:1030800000407746D1F804C09C435FEA8C3C00D5F1
:103090001C433C60084F083F3C68D1F804C09C4387
:1030A0005FEACC3C00D51C433C60521C102AFFF464
:1030B0002FAFBDE8F88F0000083C014044380240C3
:1030C00000300140000002400004024000080240BD
:1030D000000C0240001002400014024000180240A0
:1030E000001C02400AB1816170470904FBE700003F
:1030F000014880687047000008000020024881688D
:103100000278114481607047080000200B4810B518
:10311000016841F400710160016841F4806101605F
:10312000016841F480710160032000F099F80F20DC
:1031300000F006F800F04AF8002010BD003C024004
:1031400030B505461C4887B00024016841F00101F4
:103150000160006806A900F00100009001A800F0DD
:103160002BF900F059F915494000B0FBF1F1154871
:10317000134A491E026040F2E732C0E90324C0E965
:103180000114846100F029FE040012D10D4800F002
:1031900053FE04000DD1192000F034F8102D07D291
:1031A00000222946192000F03BF80748056000E09E
:1031B000012407B0204630BD4438024040420F0091
:1031C000000001404C0200200C0000200C4882B09E
:1031D000016841F480410160006800F48040009083
:1031E0000748001F016841F080510160006800221B
:1031F00000F0805000900F21901E02B000F010B837
:1032000044380240002809DB00F01F0201219140F0
:103210004009800000F1E020C0F800117047000074
:10322000F0B40E4B1B680C46C3F30223C3F1070531
:10323000042D00D90425191D072901D2002300E01F
:10324000DB1E012606FA05F1491E214099409E40E9
:10325000761E16403143F0BC03F0EEB80CED00E0F2
:10326000064900F0070208684FF6FF03184040EADD
:103270000220034A10430860704700000CED00E094
:103280000000FA052DE9F0470E46050065D0DFF88D
:103290001481D8F80000F7B200F00700B04207D25E
:1032A00088F80070D8F8000000F00700B04254D150
:1032B00028683D4C810712D5400703D5206840F4AB
:1032C000E05020602878000703D5206840F4604073
:1032D00020602068A96820F0F0000843206028786A
:1032E000C0072DD0304968680839012812D002285B
:1032F00013D0032811D00968890700292DDA216825
:1033000021F0030101432160FFF7F2FE814641F203
:10331000883A0EE009688903EFE709688901ECE75C
:10332000FFF7E6FEA0EB0901514502D90320BDE8F5
:10333000F0872068696800F00C00B0EB810FEFD1D6
:10334000D8F80010404601F00701B14207D90770D4
:10335000006800F00700B04201D00120E7E72878BC
:10336000400705D52068E96820F4E0500843206054
:103370002878000706D52068296920F4604040EAD3
:10338000C100206000F058F82168084AC1F3031119
:10339000515CC8400649086006480068FFF7D0FE47
:1033A0000020C4E7003C0240083802405A8002086E
:1033B000140000200C0000200F2202600C4A136849
:1033C00003F003034360136803F0F00383601368A2
:1033D00003F4E053C36012684FF4E05303EAD202EF
:1033E00002610448006800F00700086070470000B0
:1033F00008380240003C024004480549006809685A
:10340000044AC1F38221515CC84070471400002077
:10341000083802406A8002080448054900680968C3
:10342000044AC1F34231515CC84070471400002087
:10343000083802406A800208154810B5006810F08C
:103440000C02144813D04110042A0FD0082A0ED1C0
:103450000F4C241F2268236802F03F025B0207D54D
:103460002068C0F38810A0FB010106E0084610BDEB
:103470002168C1F38811A1FB00010023FCF7AAFF1A
:103480002168C1F30141491C4900B0FBF1F010BDB6
:10349000083802400024F4002DE9F84F04006ED0F3
:1034A0002078DFF84C93C007A9F104054AD009F150
:1034B00004000168C1F38101012908D00068C0F34C
:1034C000810002280AD1D9F80000400206D52868F8
:1034D000800337D560680028E1D033E06068B0F53C
:1034E000803F10D0B0F5A02F286810D020F4803095
:1034F0002860286820F4802028606068A8B1FFF761
:10350000F7FD06460DE0286840F48030F4E740F40B
:1035100080202860F7E700BFFFF7EAFD801B6428E2
:1035200073D828688003F7D50CE0FFF7E1FD064665
:1035300005E000BFFFF7DCFD801B6428F0D8286899
:103540008003F7D42078DFF8AC8280074FF0000AC0
:103550003ED5A748001D016811F00C0F08D0006887
:10356000C0F3810002280BD1D9F80000400207D433
:103570002868800716D5E068012800D112E033E101
:10358000E068B8B10120C8F80000FFF7B1FD0646B9
:1035900005E000BFFFF7ACFD801B0228C0D82868FB
:1035A0008007F7D52868216920F0F80040EAC100BB
:1035B00028600DE0C8F800A0FFF79AFD064604E079
:1035C000FFF796FD801B02281FD828688007F7D4D4
:1035D0002078000722D5864F87486169703771B11E
:1035E00001210160FFF784FD064604E0FFF780FD3E
:1035F000801B022809D838688007F7D50EE0C0F88C
:1036000000A0FFF775FD064605E082E0FFF770FDBC
:10361000801B02287DD838688007F7D420784007BF
:1036200068D5DFF8CCB100270BF13C0BDBF80000CC
:10363000C0000BD4DBF8001041F08051CBF8001033
:10364000DBF80000012700F0805000906B4E3068DE
:10365000C00510D4306840F480703060FFF748FD3A
:10366000009005E0FFF744FD0099401A022850D869
:103670003068C005F6D55E4EA0686C3601280FD0C4
:103680000528306810D020F001003060306820F04C
:1036900004003060A068B8B1FFF72AFD00900FE089
:1036A000306840F00100F4E740F004003060F7E7D4
:1036B000FFF71EFD0099411A41F28830814266D819
:1036C00030688007F4D50EE0FFF712FD009007E0A8
:1036D000FFF70EFD0099411A41F28830814256D819
:1036E00030688007F4D42FB1DBF8001021F080514E
:1036F000CBF80010A069C8B33D49091D0968C1F3A2
:10370000810102294AD00228504607D0C8F860003B
:1037100000E03CE0FFF7ECFC04463BE04746C8F81D
:103720006000FFF7E5FC064605E000BFFFF7E0FCA0
:10373000801B02282BD828688001F7D4D4E9070120
:103740000843A16A2E4A490802EB0141626A41EA34
:103750008211084394F82C1040EA0161C9F8001066
:1037600001203866FFF7C4FC044606E03EE000BFD7
:10377000FFF7BEFC001B022809D828688001F7D596
:1037800034E000BFFFF7B4FC001B022802D903207D
:10379000BDE8F88F28688001F4D427E00128F7D02D
:1037A000D9F80000E26900F4800191421CD1226A3C
:1037B00000F03F01914217D147F6C071626A0140A3
:1037C000B1EB821F10D1A26A4FF0FF3300F44031F9
:1037D00003EB5202B1EB024F06D194F82C1000F02B
:1037E0007060B0EB016F01D00120D1E70020CFE77E
:1037F0000438024000004742800E474200700040FB
:103800000000FFFF70B5040009D0606A002540B1D8
:1038100025616561A56294F8510040B10CE001207A
:1038200070BD6068B0F5827FF4D0E561F2E784F89E
:103830005050204600F044F8022084F851002068DF
:10384000016821F040010160A088218900F48270A4
:1038500001F404410843A18901F400610843217C7B
:1038600001F002010843217D01F001010843218B91
:1038700001F400710843217F01F03801084394F8F6
:10388000201001F080010843218D01F4005108430C
:1038900021680860A069042101EA104094F824100E
:1038A00001F010010843216848602068C16921F4D3
:1038B0000061C1616565012084F85100002070BD80
:1038C00010B586B0044614216846FDF75BF914492B
:1038D0002068884221D113480021026842F4004246
:1038E0000260006800F4004005900E48103802683D
:1038F00042F004020260006800F0040005904FF4FA
:10390000E05000900220CDE9010103200390062041
:10391000049069460448FFF7EDFA06B010BD0000B8
:10392000003C004040380240000802402DE9F84FBA
:10393000044690F851001D4616460F46012838D11E
:10394000002F77D0002E75D060684FF00408B0F5D6
:10395000827F01D1A06810B3FFF7CAFB824694F8BA
:103960005000012825D04FF0010984F8509084F8C8
:1039700051804FF00008C4F85480A763A687E687FB
:10398000C4F83080A4F83480A4F83680C4F84080AD
:10399000C4F84480A068B0F5004F0CD015E084F85E
:1039A0005180009313460A46204600F01CF9BDE8FA
:1039B000F88F0220FBE72068016821F040010160D8
:1039C0002068016821F4804101602068016849068F
:1039D00003D4016841F040010160E068C0B134E007
:1039E00020688168C90709D0007BA16B0870A06BB3
:1039F000401CA063E08F401EE08709E0FFF778FBE2
:103A0000A0EB0A00A84202D3681C01D032E085B3C3
:103A1000E08F0028E4D11BE020688168C9070AD044
:103A2000C068A16B0880A06B801CA063E08F401E63
:103A3000E0870AE01BE0FFF75BFBA0EB0A00A8426F
:103A400002D3681C01D015E09DB1E08F0028E3D1BE
:103A500052462946204601F095FF08B120206065B6
:103A600084F8519084F85080606D00289FD0012028
:103A70009DE7FFE784F8519084F85080032096E793
:103A80002DE9F84F984616468A460446FFF730FB64
:103A9000814694F8510001281ED1BAF1000F73D06D
:103AA000002E71D094F85000012815D0012784F819
:103AB0005070032084F8510000256565C4F830A0DB
:103AC000A686E686A563A587E58765642564A06864
:103AD000B0F5004F03D00CE00220BDE8F88F20685D
:103AE000016821F0400101602068016841F48041D3
:103AF000016020680168490603D4016841F0400173
:103B00000160E068B0F5006F606803D048B3012E33
:103B100027D047E008B1012E1FD1206B2168008813
:103B2000C86006E020688168890709D5216B09888B
:103B3000C160206B801C2063E08E401EE0860CE09C
:103B4000FFF7D6FAA0EB0901414503D3B8F1FF3FD7
:103B500003D035E0B8F1000F32D0E08E0028E1D17B
:103B600023E0206B21680078087306E020688168F4
:103B700089070AD5216B09780173206B401C2063EB
:103B8000E08E401EE0860DE02BE0FFF7B1FAA0EBDF
:103B90000901414503D3B8F1FF3F03D010E0B8F16C
:103BA000000F0DD0E08E0028E0D14A464146204665
:103BB00001F016FF08B120206065A06830B109E06F
:103BC00084F8517084F85050032086E72068C1685B
:103BD0008068009084F8517004F8505F6068002895
:103BE000F3D0012079E72DE9FF4F81B01D469346C0
:103BF00004464FF001090E9EFFF77AFA074694F843
:103C000051006168012806D0B1F5827F3CD1A168DE
:103C1000C9BB042838D10298002871D0BBF1000F2D
:103C2000FBD0002DF9D094F8500001282CD04FF093
:103C3000010A84F850A094F85100042802D005200D
:103C400084F851004FF00008C4F85480C4F838B02C
:103C5000E587A58702992163E586A586C4F840809B
:103C6000C4F8448020680168490603D4016841F023
:103C700040010160E068B0F5006F606808D0F0B303
:103C8000012D49D081E0FFE7022005B0BDE8F08FAB
:103C900008B1012D39D1206B21680088C860206BE4
:103CA000801C2063E08E401EE0862EE02068816844
:103CB00089070FD5E18E69B1B9F1010F0AD1216BE6
:103CC0000988C160206B801C2063E08E401EE08666
:103CD0004FF0000920688168C9070CD0E18F51B10D
:103CE000C068A16B0880A06B801CA063E08F401EA1
:103CF000E0874FF00109FFF7FBF9C01B01E00BE083
:103D000067E0B04201D3701C50D1E08E0028CDD1C5
:103D1000E08F0028CAD13EE0206B2168007808734C
:103D2000206B401C2063E08E401EE0862DE0206862
:103D3000816889070FD5E18E69B1B9F1010F0AD108
:103D4000216B09780173206B401C2063E08E401EBC
:103D5000E0864FF0000920688168C9070CD0E18F28
:103D600051B1C068A16B0870A06B401CA063E08FCC
:103D7000401EE0874FF00109FFF7BAF9C01BB042BF
:103D800002D3701C01D011E086B1E08E0028CED1A4
:103D9000E08F0028CBD13A463146204601F020FE84
:103DA00050B12020606584F8508012E084F851A062
:103DB00084F85080032068E7A06818B92068C168BB
:103DC0008068009084F851A084F85080606D0028CD
:103DD000F1D0012059E77047704710B5040003D0B7
:103DE00094F83D0010B107E0012010BD002084F8D8
:103DF0003C00204600F01EF8022084F83D00211D02
:103E0000206801F00DFF012084F8460084F83E0090
:103E100084F83F0084F8400084F8410084F84200B0
:103E200084F8430084F8440084F8450084F83D0099
:103E3000002010BD7047000090F83D10012901D00E
:103E400001207047022180F83D100168CA6842F0E5
:103E50000102CA6000681149884214D0B0F1804F55
:103E600011D00F4988420ED00E4988420BD00E491E
:103E7000884208D00D49884205D00D49884202D0B9
:103E80000C49884204D1816801F00701062903D05A
:103E9000016841F00101016000207047000001400D
:103EA0000004004000080040000C004000040140F5
:103EB000004001400018004070472DE9F0410446E1
:103EC0000068C66805694FF00007A90713D5B10758
:103ED00011D5F91E016101202077206880698007D3
:103EE000204602D0FFF7E8FF04E000F07EF820460D
:103EF00000F07CF82777680716D5700714D521687D
:103F00006FF004000861022020772068806910F4B7
:103F1000407F204602D0FFF7CFFF04E000F065F8B5
:103F2000204600F063F82777280715D5300713D50A
:103F300021686FF008000861042020772068C069BC
:103F40008007204602D0FFF7B7FF04E000F04DF8ED
:103F5000204600F04BF82777E80616D5F00614D572
:103F600021686FF010000861082020772068C06980
:103F700010F4407F204602D0FFF79EFF04E000F0DF
:103F800034F8204600F032F82777E80708D0F00729
:103F900006D021686FF001000861204600F028F883
:103FA000280608D5300606D521686FF08000086124
:103FB0002046FFF710FF680608D5700606D5216871
:103FC0006FF040000861204600F01CF8A8060AD5F2
:103FD000B00608D521686FF0200008612046BDE8D2
:103FE000F041FFF7F9BEBDE8F0817047704700006F
:103FF00000680349884201D1FFF780B8704700008C
:1040000000000140704738B5044690F8420020286F
:1040100001D0022038BD51B14AB1012020630020F7
:104020006063204602F024F8216B012901D00120B1
:1040300038BD21680A684968009121680C3151E84F
:10404000002F42F0100241E80023002BF5D138BDCB
:104050000E4A10B5904217D10D484FF40064006825
:10406000B0F84220C2F50052A24202DA0022A0F8C3
:1040700042200A46074901F045FC2246BDE81040AF
:1040800004490248FFF7BFBF10BD0000FC0000203C
:1040900098000020A45F002070470000F8B5016878
:1040A00004460868CA684B6910F00F0F4FF000050E
:1040B00059D003F0010602F49077374365D0C10769
:1040C00005D0D10503D5616C41F001016164410760
:1040D00005D5D90703D0616C41F002016164810705
:1040E00005D5D90703D0616C41F004016164010773
:1040F00007D502F02001314303D0616C41F0080183
:104100006164616C00293AD0800604D5900602D51E
:10411000204601F0C6FE20684069616CC0F3801043
:10412000090700D460B3204601F086FE206840698C
:10413000400621D52068143050E8001F21F04001CE
:1041400040E80012002AF5D1E06BA8B17249016580
:10415000E06BFEF738FD002811D0E06B016D01B077
:10416000BDE8F040084783060FD593060DD52046DD
:10417000BDE8F84001F095BE2046FFF78DFFF8BD81
:104180002046FFF789FF6564F8BD266B2023012ECA
:104190007ED1C6067CD5D6067AD5086848680090D8
:1041A00048694FF0020640064DD5E26B1068406842
:1041B0004FF480770004000C3AD0A18D814237D9AA
:1041C000E085D069B8422DD020680C3050E8001F3F
:1041D00021F4807140E80012002AF5D120681430E3
:1041E00050E8001F21F0010140E80012002AF5D13B
:1041F0002068143050E8001F21F0400140E8001210
:10420000002AF5D184F84230256320680C3050E84C
:10421000001F21F0100140E80012002AF5D1E06BE8
:10422000FEF788FC6663A08DE18D401A81B206E03E
:10423000A18D8142A8D1D069B842A5D1666320463C
:10424000FFF706FFF8BDA08DE18D401A81B2E08D29
:104250000028F7D00029F5D020680C3050E8002F56
:1042600022F4907240E80027002FF5D12068143026
:1042700050E8002F22F0010240E80027002FF5D17E
:1042800084F84230256320680C3050E8002F00E0AD
:1042900006E022F0100240E80023002BF3D1CDE726
:1042A00005062BD5150629D594F841002128C9D13A
:1042B000A068B0F5805F01D12069B0B1206A411CCF
:1042C0002162216800784860E08C401E0004000CE8
:1042D000E084B7D12068C16821F08001C160206806
:1042E000C16841F04001C160F8BD206A0088C0F398
:1042F00008004860206A801C2062E5E74006F3D58C
:104300005006F1D5CA68204622F04002CA6084F8FF
:10431000413000F05DF9F8BDF15C020870B50400B1
:1043200004D094F84100002510B106E0012070BDD2
:1043300084F84050204600F023F8242084F84100FF
:104340002068C16821F40051C160204601F00AFED6
:104350002068016921F4904101612068416921F0E0
:104360002A0141612068C16841F40051C16065645F
:10437000202084F8410084F842006563002070BD6D
:104380002DE9F04186B0064614216846FCF7FAFB99
:104390003E4F31683E480222032307250024B942DC
:1043A00054D13B4914310F6847F010070F6009687A
:1043B00001F010010591016841F001010160006800
:1043C000694600F00100059058028DE81500CDE91E
:1043D00003353048FEF78EFD304D2F484FF0006812
:1043E0002860C5E901840715C5E903476C61B80178
:1043F000AC61C5E9074028466C62FEF7C7FC08B10E
:10440000FEF796FBF563AE63244D234860357830A4
:10441000E5E80208402091C5204845F8144960307D
:10442000AC61EC612C626C62FEF7B0FC08B1FEF787
:104430007FFBB563002205212520AE63FEF7F0FE69
:104440002520FEF7DFFE06B0BDE8F081144EB14234
:10445000F9D10F4910310E6846F480260E600968C4
:1044600001F480210591016841F0020101600068BA
:10447000694600F0020005904FF440608DE8150099
:10448000CDE903350748FEF735FDDCE700100140B4
:104490003038024000000240406402408C0100209D
:1044A0000048004000040240704770472DE9F8437F
:1044B000044690F84100984616460D46202802D042
:1044C0000220BDE8F88385B17EB100206064212020
:1044D00084F84100FEF70CFEA6848146E684A068BD
:1044E0002027B0F5805F02D003E00120E9E72069D2
:1044F00010B12E4600250EE000260CE0802120465B
:1045000001F006FEA8B9C6B116F8010B2168486093
:10451000E08C401EE084E08C4B464FF00002CDF86A
:1045200000800028EAD14FF04001204601F0F0FD64
:1045300040B184F841700320C3E735F8020BC0F3A3
:104540000800E3E784F841700020BAE770B504463C
:1045500090F84100202801D0022070BD01B3FAB1CB
:104560002162A284E28400206064212384F8413027
:10457000A56B144BEB63A56B134B2B64A56B134B13
:10458000EB64A36B186520681346A56B021D2846D3
:10459000FEF766FC30B110206064202084F84100F2
:1045A000012070BD21686FF0400008602068143061
:1045B00050E8001F41F0800140E80012002AF5D1C8
:1045C000002070BDED5D02082F5E0208FF5C02084E
:1045D00008B500680A49884211D1002000900948B6
:1045E0006946406803F0D5F80098002807D00649CE
:1045F0004FF080500860BFF34F8FBFF36F8F08BD3F
:10460000001001409C00002004ED00E07047FEE730
:10461000154808B5016841F480010160016801F4A2
:1046200080010091016841F40011016000680022DE
:1046300000F40010009005211020FEF7F1FD10207D
:10464000FEF7E0FD002205213A20FEF7E9FD3A20C1
:10465000FEF7D8FD002205214620FEF7E1FDBDE86A
:1046600008404620FEF7CEBD303802401CB5054953
:104670000220CDE90001C201002303A1054803F097
:1046800069FA1CBD00000020737461727454617378
:104690006B000000095B020830B587B01421684642
:1046A000FCF770FA1F480024016841F00401016022
:1046B000016801F004010591016841F08001016089
:1046C000016801F080010591016841F0010101607C
:1046D000016801F001010591016841F002010160EA
:1046E000016801F002010591016841F0400101609B
:1046F00000680D4D00F04000059001220C21284675
:10470000FEF7F0FC002210212846FEF7EBFC1C20EF
:1047100001218DE81300039169462846FEF7EAFB64
:1047200007B030BD30380240001802400F4810B5C5
:104730000D4901604FF48271416000218160C160C8
:104740004FF400720161C0E90512C161016241626A
:1047500081620A21C162FFF755F8002803D0BDE845
:104760001040FEF7E5B910BD003C0040A400002059
:104770000C4810B50A4901604FF4E1314160002155
:1047800081600C22C160C0E904128161C161FFF740
:10479000C5FD002803D0BDE81040FEF7C9B910BD23
:1047A00000100140FC0000200C4810B50A490160CF
:1047B0004FF4E1314160002181600C22C160C0E909
:1047C00004128161C161FFF7A9FD002803D0BDE893
:1047D0001040FEF7ADB910BD004800404401002074
:1047E000FEE7FEE770B5144CA07D08B1002070BD57
:1047F0001248006812494FF4C023451801220021D5
:104800009D4206D30F4D2844984211D3207D0128A4
:104810000ED008462075A275216001F0E7FD207DCD
:10482000012807D0412108A001F0D6FC012070BD6D
:104830001046EFE74221F6E7249A002008ED00E059
:104840000000FEF70000F8F75B494E464F5D20433D
:104850006F6E6669726D206E6577206669726D771E
:1048600061726520737563636573732C20736C6F5D
:10487000743D25630D0A000010B501F021FDFFF71E
:10488000B1FFFDF7ADFF002809D005A108A0FEF794
:104890000DF9002803D0084900204870012010BD00
:1048A00079616E7862787077787A3332716B6A00EA
:1048B000796F7573610000009C000020F0B583786B
:1048C000028863F31F42C37842EA03650D6083796F
:1048D000828863F31F42C37942EA03644C60837A9F
:1048E000028963F31F42C37A42EA03638B60867BCB
:1048F000828966F31F42C67B42EA0662CA60877CF1
:10490000068AC07C67F31F4646EA006008610949D1
:104910008D420BD1142C09D10BB1012B06D12AB138
:10492000B2F5C02F02D808B1602801D90020F0BD2F
:104930000120F0BD4841544F2DE9F04715460E4681
:10494000044600F12808DFF800A100F13C0974E0FA
:10495000606814282CD2C0F11407BD4200D22F4643
:1049600040443A463146FCF79EF86068ED1B3844F7
:104970003E446060142860D104F114014046FFF702
:104980009DFF00285CD0D4E908010844DAF804103F
:1049900075305746884255D1142241464FF4405055
:1049A00001F0C6FC207F7875012084F89D0044E06A
:1049B000A068612817D2C0F16107BD4200D22F461E
:1049C00048443A463146FCF76EF8A068ED1B38447F
:1049D0003E44A060612830D1612249464FF4005026
:1049E00001F0A6FC29E094F89D00002828D0216A57
:1049F000E06888420DD20F1ABD4200D22F463A46D7
:104A0000314600F5801001F093FCE0683844E06026
:104A100011E0616A2069884214D20F1ABD4200D2A7
:104A20002F4643F2140108443A46314601F080FC17
:104A30002069384420613E44ED1B002D88D10120BF
:104A4000BDE8F0870020FBE7249A0020A021FCF7B6
:104A500099B800002DE9F04FFD4CDFF8F8B30427BA
:104A600060780026B9B04FF002094FF0010A4FF408
:104A700000780BF52275052855D2DFE800F0030C0D
:104A80005792FD00F4A000F09BFB10B184F801A048
:104A900046E0677044E08021EE48FCF773F82B464F
:104AA000F1A28021EB480095FBF726FDE948FBF7D2
:104AB000DBFFF64AF6A3CDE9020BCDE90032E5486B
:104AC000F6A3F94A41468030FBF716FDE149F7A00D
:104AD000803101F081FBDF488030FBF7C5FFDD4905
:104AE00082B28031F448FFF731FD4FF0FF3160684A
:104AF00002F03AFF00214FF4FA5000F0BBFA002810
:104B0000C7D0EE48EEA1FBF771FF0028C1D06A467E
:104B1000EDA1FBF737FE00980028BAD184F8019088
:104B2000642002F089FA39B0BDE8F08F4FF47A7052
:104B300002F082FAC748464641468030FCF722F828
:104B4000D248D3A10290CDE90015C248D3A3E14ACF
:104B500031468030FBF7D0FCBE49D4A0803101F053
:104B60003BFBBC488030FBF77FFFBA4982B2803103
:104B7000D148FFF7EBFC4FF0FF31606802F0F4FE24
:104B800000214FF4FA5000F075FA38B131A9CB4842
:104B9000FDF74AFE10B103206070C4E784F801906D
:104BA000C1E7AC484FF400718030FBF7EBFF802188
:104BB000A848FBF7E7FFADF8B460C748002205E05E
:104BC0004840C649521C48430C2A02D2A95C00291D
:104BD000F6D12C9000203096B04634963590379020
:104BE000369000F0ABFBBE4D34AB30AA69682C9810
:104BF00000F03AFC4FF4801A4FF4B01970B16868B5
:104C00003099884207D8CDF8C08001230022696816
:104C10002C9800F0ABFD309810B115E0CDF8C080B5
:104C20005646300B01F0F6FA06F580564E45F8D39D
:104C3000022001F0EFFA032001F0ECFA0123002238
:104C400069682C9800F092FD04A8309900F072FA7F
:104C5000E8B9A4A001F0C0FA5646300B01F0DAFA28
:104C600006F580564E45F8D3022001F0D3FA032012
:104C700001F0D0FA012300E0BBE1002269682C9822
:104C800000F074FD04A8CDF8C080FFF7DFFE0798A0
:104C9000B0F5C02F20D200F58010060B3603801B24
:104CA0005FEA000812D002469D49304601F0DCFA66
:104CB000300B01F0AFFA42469949304601F038FB1B
:104CC00002E0300B01F0A6FA06F580564E45F8D307
:104CD00094A0079901F080FA309E049682E000BF0C
:104CE00006F2FF10814200D8481E811B01F1010825
:104CF0000090334697A280215648FBF7FDFB31AA6E
:104D000063A36249CDE90032CDE9021B514863A398
:104D1000924A4FF400718030FBF7EEFB314690A0D1
:104D20006A6801F059FA4B488030FBF79DFE49490B
:104D300082B280316048FFF709FC4FF0FF316068B4
:104D400002F012FE2DA94FF4FA5000F093F9E8B1E9
:104D5000BDF8B4204046424505D0014692B287A036
:104D600001F03AFA43E1554904A8FFF7E5FD50B1D7
:104D7000BDF8B4100498084404903598401C359050
:104D8000379858B115E089A001F026FA6770049AA7
:104D9000012369682C9800F0E9FC27E005981428A5
:104DA00007D1049A012369682C9800F0DFFC0120E8
:104DB0003790369850B90698612807D1049A012394
:104DC00069682C9800F0D2FC012036903598C00715
:104DD00005D1049A002369682C9800F0C7FCBDF83F
:104DE000B40006446968B1423FF67AAF607804289F
:104DF0003FF4D3AE04986968884227D19DF8AD008E
:104E000020B30698612821D10C99079888421DD1BA
:104E10000D990898884219D16F48286001F0E6FA88
:104E2000696801230A462C9800F0A0FC4FF4FA7040
:104E300002F002F9BFF34F8F68480168684A01F435
:104E4000E06111430160BFF34F8FCBE0CCE0000085
:104E50009C000020A49700203138332E3233302EAE
:104E600034302E33330000007B22735F766572731B
:104E7000696F6E223A222573222C22665F76657254
:104E800073696F6E223A222573227D0060830208C7
:104E90006D6963726F7761766500000071767438B2
:104EA000314E4F4978630000D08202085B494E467C
:104EB0004F5D2025730D0A00FC000020684F002084
:104EC00022636F6465223A0022636F6465223A258B
:104ED00064000000BC810208C59D1C819301000193
:104EE000249A00205B5741524E494E475D2052653F
:104EF00073756D6520636F6E7465787420696E7666
:104F0000616C69642C2066616C6C6261636B206605
:104F1000756C6C20646F776E6C6F61640D0A0000B5
:104F2000A48700205B44454255475D20457261736C
:104F300065642073746167696E67207461696C20B1
:104F400066726F6D206F666673657420256C750DD3
:104F50000A000000256C752D256C7500448202083E
:104F60005B494E464F5D204F544120726563762069
:104F7000256C752F256C750D0A0000005B4552529B
:104F80004F525D204F544120626F6479206C656EF2
:104F9000206D69736D617463683A206578703D2592
:104FA0006C7520676F743D25750D0A005B45525284
:104FB0004F525D204F5441207061636B61676520E3
:104FC000726F757465207772697465206661696CAB
:104FD00065640D0A000000002211BBAA0CED00E080
:104FE0000400FA0500BF30E710A001F0F5F8677083
:104FF00099E5207898B14FF0FF33032214A11548AA
:10500000FFF754FAC82111A0FDF700FDC82112A036
:10501000FDF7FCFCC82114A0FDF7F8FC267040F653
:10502000B83002F009F866707DE500005B45525229
:105030004F525D204F5441207061636B6167652062
:10504000696E636F6D706C6574650D0A0000000019
:105050002B2B2B00FC00002041542B4349504D4F7B
:1050600044453D300000000041542B434950434C1F
:105070004F5345002DE9F8430C46074602F0D0FD9A
:1050800006460020ADF8000004B12080DFF86C80F7
:1050900002F0C6FD801BB8422DD21949D8F8000095
:1050A00000F00AFC0028F3D016A11548FBF79EFC7F
:1050B00018B16A4617A1FBF765FB1BA11048FBF767
:1050C00095FC0500E4D0BDF800004FF480618842F3
:1050D00001D9ADF800101648FBF732FDBDF80020ED
:1050E000291D1348FBF7DFFC14B1BDF80000208038
:1050F0000120BDE8F8830020FBE7000098000020B5
:10510000684B0020436F6E74656E742D4C656E673E
:1051100074683A00436F6E74656E742D4C656E67EB
:1051200074683A20256875000D0A0D0A0000000019
:10513000684F00202DE9F0410D460446FFF786FC3C
:10514000C5B31E4E7068A84231D3142D01D86560D6
:1051500031E004F1280114220F464FF4405001F0D1
:1051600083F804F114013846FFF7A8FB00281FD08C
:10517000D4E908014218736875329A4217D1142293
:1051800062600122143D84F89D20612D01D22A46DF
:1051900000E06122A260AA1A904200D91046E060A5
:1051A000101A814200D901462161884203D00020B3
:1051B000BDE8F081FFE70120FAE70000249A002013
:1051C00070B5164C0646606828B9032200210120FC
:1051D00002F038F96060FDF7D3FB00281DD0104DB8
:1051E000334610A24FF480612846FBF785F94FF44F
:1051F000FA6631462846FDF709FC00280DD03146F5
:105200000FA0FDF703FC002807D0314610A0FDF7E2
:10521000FDFB002801D00120207070BD9C00002003
:10522000684B002041542B43495053544152543D44
:1052300022544350222C222573222C3830000000A7
:1052400041542B4349504D4F44453D31000000002F
:1052500041542B43495053454E440000FFF7FAFB9D
:10526000FCE7000030B50C4B044600201A8C10E01F
:10527000111A00EB610189B203EB41056D8C03EB60
:105280008505D5F81C52A54202D8491C88B200E019
:105290000A469042ECD330BD68530020182100F03C
:1052A00003B80821AFF3008070B54FF0FF32002340
:1052B000094E0DE0C45C62405FF0000402F001059D
:1052C0006D423540641C85EA5202082CF6D35B1C03
:1052D0008B42EFD3D04370BD2083B8ED70B5164D2F
:1052E000E86900280DDB291891F8FC294AB191F8EA
:1052F000F81A31B105EB8000D0F80C0628600120C7
:1053000070BD0024281990F8FC0930B1641CFC2CF5
:10531000F8D3BDE8704000F0F9B84FF4804000EBDE
:105320000430000B00F076FFA9692046BDE870400C
:10533000491C00F051B800006853002010B500F07F
:1053400075F90249012081F8F50B10BD6853002062
:1053500070B50D4C054604EB8500D0F81C02FFF734
:1053600081FF218C06E000BF04EB4102491E138C33
:10537000538489B28142F7D804EB40004584208CE5
:10538000401C208470BD000068530020002205E00E
:10539000835CFF2B01D000207047521C8A42F7D358
:1053A0000120704710B504460068B0F1A53F11D147
:1053B000E069B0F15A3F0DD1A08801280AD1E088F8
:1053C0000C2807D12046FFF769FFA169884201D167
:1053D000012010BD002010BD70B504464FF4804080
:1053E00086B00D4600EB0436FF2214216846FBF719
:1053F0009FFB1A48CDE900056846FFF752FF02906F
:105400004FF0FF300390049014226946304600F0BC
:105410008FFF13480590042205A906F10C0000F047
:1054200087FF10480123021900EB840144F214069F
:1054300082F8FC3906EB0436C1F80C66C1F81C5240
:1054400082F8F83AC461D1F80C16856101602046F3
:10545000FFF77EFF06B0012070BD00005353474C9C
:105460003C5AA553685300202DE9FF4F264C834634
:1054700089B094F8F50B1E46904608B9FFF75EFF19
:10548000A069FFF7EFFE401E3CD4054644F2140A23
:105490004FEA040909EB4500408C09EB00020AEBD6
:1054A000003792F8F82A22B109EB8000D0F80C46B8
:1054B00002E0040304F5A044BC4221D9243CBC42D0
:1054C0001ED324226946204600F0CEFE6846FFF730
:1054D00069FF98B10499594510D105990A988142FC
:1054E0000CD1B8F1000F02D00399C8F800100EB12A
:1054F0000298306001200DB0BDE8F08FBC42DDD1D4
:105500006D1EC7D50020F6E7685300202DE9F0474F
:1055100000272F4CBA463E46208CB946B846002894
:1055200054D0658C4FF480404FF4A04194F8F42B94
:1055300000EB053001EB053152B16268824207D3BE
:105540008A4205D2D4E903A9D4F81480A6680127B9
:10555000000B00F05FFE0020611904EB850244F2AD
:10556000140381F8FC0903EB0533C2F80C36C2F8CA
:105570001C0281F8F80A218C15E000BF04EB400200
:10558000538CAB420DD1401C218C80B2814204D996
:1055900004EB40014A8C0A84F5E788B2401E20845F
:1055A00003E0401C80B28142E8D8A1692846491C2A
:1055B000FFF712FF002809D03FB143464A46711C4D
:1055C000504600F00DF9002800D00120BDE8F0871A
:1055D0006853002030B514484FF480110022016058
:1055E0004FF0FF31C0E90112C26002614261C0E9BF
:1055F0000621028480F8F42B114644F2140400BF03
:1056000000EB410304EB01355A8400EB8103C3F83E
:105610000C56C3F81C224318491C83F8FC2983F854
:10562000F82AFC29ECD330BD6853002070B586B051
:10563000FFF7D0FF254C00254FF4804606EB0530E0
:105640001422694600F010FE14216846FFF79EFE02
:1056500008BB1F4A0099684691421CD11D4A039914
:10566000914218D1FFF71DFE0299884213D16119AA
:10567000012081F8FC0904EB85010198C1F81C02A6
:105680000198A169884200D9A0612846FFF760FE11
:10569000284600F021F86D1CFC2DCFD34FF0FF30D1
:1056A000E061208C0FE000BF04EB4001498C6218E0
:1056B00092F8F82A3AB104EB8100E161D0F80C06C7
:1056C000206006B070BD401EEED5FAE7685300209A
:1056D0005353474C3C5AA5532DE9F047064644F234
:1056E000140000EB06344FF4A0408AB000EB0635FE
:1056F0000027DFF874904FF0010A25E02422694664
:10570000204600F0B1FD24216846FFF73FFE10B1AE
:10571000254601271CE06846FFF744FE98B199F83A
:10572000F41B484619B10299826891420BD980F85E
:10573000F4AB029981600399C160049901610599F4
:105740004161C9F80440444604F12408A845D5D96C
:1057500009EB860109EB0600C1F80C5680F8F87ACF
:105760000AB0BDE8F0870000685300202DE9F0473B
:105770001A4C81461F4694F8F50B164688460025BC
:1057800008B9FFF7DBFD94F8F40BA0B12169494596
:1057900007D16169414504D1E0680125B04200D3D9
:1057A00037B1BD4307D0E068301AB0F5806F02D240
:1057B0000120BDE8F087FFF791FD0028F9D094F8AB
:1057C000F40B10B1A168491C00E0002143464A4691
:1057D0003046BDE8F04700F003B8000068530020F1
:1057E0002DE9FF4F334C8BB09946E66992468B46C4
:1057F000002E03DA00200FB0BDE8F08F4FF4A04078
:1058000000EB063704EB86000990D0F80C5605F142
:1058100024008046B84204D90020A11981F8F80A72
:10582000E8E7FF2224216846FBF782F94FF0A53014
:1058300000900120ADF804000C20ADF80600CDF872
:1058400008B00B98CDF81490CDE9030A6846FFF72D
:1058500025FD06904FF0FF300790089024226946FE
:10586000284600F065FD4FF05A300A9004220AA93C
:1058700005F11C0000F05CFD099948354046C1F86F
:105880000C86C4F80080BD4201D8012100E000214F
:10589000A219243882F8F81A012184F8F41BC4F8FC
:1058A00008B00B99C4F814906060C4E9031A012091
:1058B000A1E700006853002070B50446B0F840002E
:1058C0000B460025C8B1A08F04EB800134F82000FE
:1058D0004988091A8DB20A492A4601441846FBF73D
:1058E000E2F834F83C0F0F21401CB0FBF1F201FB51
:1058F00012002080A088401EA080284670BD0000B5
:10590000A46700202DE9F0410446B0F84070B0F8DB
:105910004230C08F1A4E0F2524F82030E38FB4F8A0
:10592000420004EB830310445880B4F842000F2F68
:105930001044A4F84200E08F34F8200030440ED226
:10594000FBF7B1F834F83E0F401CB0FBF5F105FB56
:10595000110020806088401C6080BDE8F081FBF76A
:10596000A2F8E08F401CB0FBF5F105FB1100E087C9
:10597000A08F401CB0FBF5F105FB1100A087ECE700
:10598000A4670020F8B5044640684FF4827398423B
:1059900021D1A0684FF48065B0F5004F01D0A84236
:1059A0000AD12068066826F04006066060689842C2
:1059B00011D1A068A8420ED000920B46002280218F
:1059C000204600F043F8002804D0606D40F020002D
:1059D00060650320F8BD00920B4600220121EFE72D
:1059E000F8B515460E460B460092044601220221E8
:1059F00000F02CF8A0B9134813490068B0FBF1F08F
:105A00004FF47A71484300906068B0F5827F0DD101
:105A10003346002280212046009500F017F870B12F
:105A2000606D40F0200060650320F8BD009830B143
:105A3000401E009020688068C0430006F6D5002014
:105A4000F8BD00001400002000366E012DE9F84377
:105A50001E46914688460446089DFDF749FB401BBB
:105A6000351AFDF745FB074626480068C0F3CB30E2
:105A700068430AE0701C09D0FDF73AFBC01BA8423E
:105A80000FD275B10098B8B3401E009020688168AD
:105A900038EA010033D000214945EBD10020BDE8B0
:105AA000F8832068416821F0E00141606068B0F54A
:105AB000827F0BD1A068B0F5004F02D0B0F5806FA7
:105AC00004D12068016821F040010160A06AB0F5AE
:105AD000005F09D12068016821F40051016020684D
